:020000040800F2
:1000000000500020A5060008DD050008E3050008F3
:10001000E9050008EF050008F505000800000000EC
:10002000000000000000000000000000FB050008C8
:100030000706000800000000130600081F0600085D
:10004000ED060008ED060008ED060008ED060008C4
:10005000ED060008ED060008ED060008ED060008B4
:10006000ED060008ED060008ED060008ED060008A4
:10007000ED060008ED060008ED060008ED06000894
:10008000ED060008ED060008ED060008ED06000884
:10009000ED060008ED060008ED060008ED06000874
:1000A000ED060008ED060008ED060008ED06000864
:1000B000ED060008ED060008ED060008ED06000854
:1000C000ED060008ED060008ED060008ED06000844
:1000D000ED060008ED060008ED060008ED06000834
:1000E000ED060008ED060008ED060008000000001F
:1000F0000000000000000000000000000000000000
:0C01000000000000000000005FF808F1A3
:10010C0010B5054C237833B9044B13B10448AFF345
:10011C0000800123237010BD5C0000200000000053
:10012C009027000808B5034B1BB103490348AFF3F4
:10013C00008008BD0000000060000020902700082F
:10014C0080B586B002AF0346FB71FB7923F00F0339
:10015C00FB73FB791B01BB73FB7B43F00C03DBB222
:10016C003B72FB7B43F00803DBB27B72BB7B43F03F
:10017C000C03DBB2BB72BB7B43F00803DBB2FB723C
:10018C0007F108026423009304234E21034800F076
:10019C00F3FE00BF1037BD4680BD00BF78000020C5
:1001AC0080B586B002AF0346FB71FB7923F00F03D9
:1001BC00FB73FB791B01BB73FB7B43F00D03DBB2C1
:1001CC003B72FB7B43F00903DBB27B72BB7B43F0DE
:1001DC000D03DBB2BB72BB7B43F00903DBB2FB72DA
:1001EC0007F108026423009304234E21034800F016
:1001FC00C3FE00BF1037BD4680BD00BF7800002095
:10020C0080B582B000AF786039607B68002B03D07A
:10021C007B68012B05D009E03B6843F080033B6011
:10022C0004E03B6843F0C0033B6000BF3B68DBB2BB
:10023C001846FFF785FF00BF0837BD4680BD80B567
:10024C0000AF322000F0B0FA3020FFF779FF052024
:10025C0000F0AAFA3020FFF773FF012000F0A4FA97
:10026C003020FFF76DFF0A2000F09EFA2020FFF7E8
:10027C0067FF0A2000F098FA2820FFF761FF0120A1
:10028C0000F092FA0820FFF75BFF012000F08CFAD7
:10029C000120FFF755FF012000F086FA012000F045
:1002AC0083FA0620FFF74CFF012000F07DFA0C20AA
:1002BC00FFF746FF00BF80BD80B582B000AF78600D
:1002CC0006E07B685A1C7A601B781846FFF768FFBB
:1002DC007B681B78002BF4D100BF00BF0837BD46EC
:1002EC0080BD000080B584B000AF00F0FBF900F0D9
:1002FC001BF800F08DF800F05DF8FFF7A0FF40F25E
:10030C00D243FB603B1DFA680649184601F088FD94
:10031C0000210020FFF774FF3B1D1846FFF7CCFFB0
:10032C00FEE700BFA827000880B590B000AF07F12A
:10033C00180328220021184601F092FD3B1D0022D3
:10034C001A605A609A60DA601A610123BB614FF43B
:10035C008033FB6100233B620123BB6202237B637E
:10036C004FF48033BB634FF4E013FB6307F11803C6
:10037C00184601F059F90346002B01D000F0A0F803
:10038C000F237B600223BB600023FB604FF4806370
:10039C003B6100237B613B1D0221184601F0C6FB2B
:1003AC000346002B01D000F08BF800BF4037BD4650
:1003BC0080BD000080B500AF124B134A1A60114B80
:1003CC00124A5A600F4B00229A600E4B0022DA60E0
:1003DC000C4B4FF480421A610A4B00225A61094BB4
:1003EC0000229A61074B0022DA61064B00221A6246
:1003FC00044800F07DFC0346002B01D000F060F8AF
:10040C0000BF80BD7800002000540040A086010091
:10041C0080B588B000AF07F1100300221A605A6053
:10042C009A60DA60244B9B69234A43F01003936172
:10043C00214B9B6903F01003FB60FB681E4B9B690F
:10044C001D4A43F0200393611B4B9B6903F020036F
:10045C00BB60BB68184B9B69174A43F0040393615C
:10046C00154B9B6903F004037B607B68124B9B6903
:10047C00114A43F0080393610F4B9B6903F0080387
:10048C003B603B6800224FF400510C4800F018FC14
:10049C004FF400533B6101237B610023BB610223BA
:1004AC00FB6107F110031946044800F085FA00BF00
:1004BC002037BD4680BD00BF001002400010014037
:1004CC0080B400AF72B600BFFEE7000080B485B008
:1004DC0000AF154B9B69144A43F001039361124B17
:1004EC009B6903F00103BB60BB680F4BDB690E4AD1
:1004FC0043F08053D3610C4BDB6903F080537B607A
:10050C007B680A4B5B68FB60FB6823F0E063FB6075
:10051C00FB6843F00073FB60044AFB68536000BF48
:10052C001437BD4680BC70470010024000000140EB
:10053C0080B58AB000AF786007F1140300221A600E
:10054C005A609A60DA607B681B681D4A934232D10C
:10055C001C4B9B691B4A43F008039361194B9B6925
:10056C0003F008033B613B694FF440737B6112233A
:10057C00BB6103233B6207F114031946124800F0D8
:10058C001BFA124B5B687B627B6A43F0E0637B6215
:10059C007B6A43F002037B620C4A7B6A5360094B13
:1005AC00DB69084A43F40013D361064BDB6903F49F
:1005BC000013FB60FB6800BF2837BD4680BD00BF41
:1005CC000054004000100240000C014000000140AB
:1005DC0080B400AFFEE780B400AFFEE780B400AF9C
:1005EC00FEE780B400AFFEE780B400AFFEE780B456
:1005FC0000AF00BFBD4680BC704780B400AF00BFE9
:10060C00BD4680BC704780B400AF00BFBD4680BC07
:10061C00704780B500AF00F0ABF800BF80BD0000A4
:10062C0080B586B000AF7860144A154BD31A7B6145
:10063C007B693B61134B1B68002B02D1114B124A97
:10064C001A60104B1A687B6813443A699A4207D2B5
:10065C0001F00EFC03460C221A604FF0FF3309E048
:10066C00084B1B68FB60074B1A687B681344054AF0
:10067C001360FB6818461837BD4680BD005000203B
:10068C0000040000CC0000202002002080B400AF49
:10069C0000BFBD4680BC7047FFF7F8FF0B480C4904
:1006AC000C4A002302E0D458C4500433C4188C42C2
:1006BC00F9D3094A094C002301E013600432A24229
:1006CC00FBD301F0DBFBFFF70DFE704700000020B1
:1006DC005C000020142800085C0000201C02002094
:1006EC00FEE7000080B500AF084B1B68074A43F0DB
:1006FC0010031360032000F02BF90F2000F008F812
:10070C00FFF7E4FE0023184680BD00BF0020024026
:10071C0080B582B000AF7860124B1A68124B1B7810
:10072C0019464FF47A73B3FBF1F3B2FBF3F31846AB
:10073C0000F035F90346002B01D001230EE07B6855
:10074C000F2B0AD8002279684FF0FF3000F00BF91C
:10075C00064A7B681360002300E001231846083723
:10076C00BD4680BD000000200800002004000020D1
:10077C0080B400AF054B1B781A46054B1B6813441D
:10078C00034A136000BFBD4680BC704708000020C0
:10079C00D000002080B400AF024B1B681846BD4649
:1007AC0080BC7047D000002080B584B000AF78606A
:1007BC00FFF7F0FFB8607B68FB60FB68B3F1FF3FAD
:1007CC0005D00A4B1B781A46FB681344FB6000BF2C
:1007DC00FFF7E0FF0246BB68D31AFA689A42F7D8D3
:1007EC0000BF00BF1037BD4680BD00BF0800002011
:1007FC0080B485B000AF78607B6803F00703FB60C2
:10080C000C4BDB68BB60BA684FF6FF031340BB6050
:10081C00FB681A02BB68134343F0BF6343F4003315
:10082C00BB60044ABB68D36000BF1437BD4680BCB4
:10083C00704700BF00ED00E080B400AF044BDB68F4
:10084C001B0A03F007031846BD4680BC704700BF67
:10085C0000ED00E080B483B000AF03463960FB715B
:10086C0097F90730002B0ADB3B68DAB20C4997F991
:10087C0007301201D2B20B4483F800230AE03B6824
:10088C00DAB20849FB7903F00F03043B1201D2B230
:10089C000B441A7600BF0C37BD4680BC704700BFB6
:1008AC0000E100E000ED00E080B489B000AFF8603A
:1008BC00B9607A60FB6803F00703FB61FB69C3F165
:1008CC000703042B28BF0423BB61FB690433062BED
:1008DC0002D9FB69033B00E000237B614FF0FF3240
:1008EC00BB6902FA03F3DA43BB681A407B699A408E
:1008FC004FF0FF317B6901FA03F3D9437B680B405E
:10090C00134318462437BD4680BC704780B582B06F
:10091C0000AF78607B68013BB3F1807F01D301238A
:10092C000FE00A4A7B68013B53600F214FF0FF3008
:10093C00FFF790FF054B00229A60044B07221A60C8
:10094C00002318460837BD4680BD00BF10E000E00C
:10095C0080B582B000AF78607868FFF749FF00BFC0
:10096C000837BD4680BD80B586B000AF0346B96080
:10097C007A60FB7300237B61FFF75EFF78617A6816
:10098C00B9687869FFF790FF024697F90F30114666
:10099C001846FFF75FFF00BF1837BD4680BD80B516
:1009AC0082B000AF78607868FFF7B0FF0346184656
:1009BC000837BD4680BD000080B48BB000AF7860B6
:1009CC00396000237B6200233B6269E101227B6A70
:1009DC0002FA03F3FB613B681B68FA691340BB61C5
:1009EC00BA69FB699A4240F058813B685B689A4A45
:1009FC0093425ED0984A934275D8984A934258D005
:100A0C00964A93426FD8964A934252D0944A934254
:100A1C0069D8944A93424CD0924A934263D8924AF2
:100A2C00934246D0904A93425DD8122B2AD8122B6F
:100A3C0059D801A252F823F0BF0A0008990A0008FD
:100A4C00AB0A0008ED0A0008F30A0008F30A0008D4
:100A5C00F30A0008F30A0008F30A0008F30A000876
:100A6C00F30A0008F30A0008F30A0008F30A000866
:100A7C00F30A0008F30A0008F30A0008A10A0008A8
:100A8C00B50A0008794A934213D02CE03B68DB6826
:100A9C003B6229E03B68DB6804333B6224E03B6843
:100AAC00DB6808333B621FE03B68DB680C333B625E
:100ABC001AE03B689B68002B02D104233B6213E0D5
:100ACC003B689B68012B05D108233B627B68FA6964
:100ADC001A6109E008233B627B68FA695A6103E0FA
:100AEC0000233B6200E000BFBB69FF2B01D87B6891
:100AFC0001E07B6804337B61BB69FF2B02D87B6A06
:100B0C009B0002E07B6A083B9B003B617B691A6897
:100B1C000F213B6901FA03F3DB431A40396A3B6945
:100B2C0001FA03F31A437B691A603B685B6803F0B4
:100B3C008053002B00F0B1804D4B9B694C4A43F025
:100B4C00010393614A4B9B6903F00103BB60BB68D3
:100B5C00484A7B6A9B08023352F82330FB607B6A5D
:100B6C0003F003039B000F2202FA03F3DB43FA6842
:100B7C001340FB607B68404A934213D07B683F4A2A
:100B8C0093420DD07B683E4A934207D07B683D4A26
:100B9C00934201D1032306E0042304E0022302E084
:100BAC00012300E000237A6A02F0030292009340D2
:100BBC00FA681343FB602F497B6A9B080233FA687F
:100BCC0041F823203B685B6803F48013002B06D0AC
:100BDC002D4B9A682C49BB6913438B6006E02A4B5A
:100BEC009A68BB69DB43284913408B603B685B68A0
:100BFC0003F40013002B06D0234BDA682249BB699F
:100C0C001343CB6006E0204BDA68BB69DB431E491B
:100C1C001340CB603B685B6803F40033002B06D0B9
:100C2C00194B5A681849BB6913434B6006E0164BC5
:100C3C005A68BB69DB43144913404B603B685B68E3
:100C4C0003F48033002B21D00F4B1A680E49BB697B
:100C5C0013430B6021E000BF000032100000311084
:100C6C0000002210000021100000121000001110D2
:100C7C00001002400000014000080140000C01403F
:100C8C000010014000140140000401400B4B1A6895
:100C9C00BB69DB43094913400B607B6A01337B6200
:100CAC003B681A687B6A22FA03F3002B7FF48EAE42
:100CBC0000BF00BF2C37BD4680BC7047000401400C
:100CCC0080B483B000AF78600B467B8013467B709A
:100CDC007B78002B03D07A887B681A6103E07B88D1
:100CEC001A047B681A6100BF0C37BD4680BC704784
:100CFC0080B584B000AF78607B68002B01D10123F4
:100D0C002BE17B6893F83D30DBB2002B06D17B687E
:100D1C00002283F83C207868FFF70AFC7B682422C9
:100D2C0083F83D207B681B681A687B681B6822F07F
:100D3C0001021A607B681B681A687B681B6842F4A6
:100D4C0000421A607B681B681A687B681B6822F477
:100D5C0000421A6001F032F8F8607B685B68814AE7
:100D6C00934207D8FB68804A934294BF0123002327
:100D7C00DBB206E0FB687D4A934294BF012300235B
:100D8C00DBB2002B01D00123E7E0FB68784AA2FB21
:100D9C0003239B0CBB607B681B685B6823F03F01E3
:100DAC007B681B68BA680A435A607B681B681B6ABD
:100DBC0023F03F017B685B686A4A934202D8BB68A8
:100DCC00013309E0BB684FF4967202FB03F3694AE6
:100DDC00A2FB03239B0901337A6812680B4313624D
:100DEC007B681B68DB6923F44F4222F0FF027B68AF
:100DFC005B685C498B4219D8FB68591E7B685B6841
:100E0C005B00B1FBF3F3591C40F6FC730B40002B59
:100E1C000AD0FB68591E7B685B685B00B1FBF3F37F
:100E2C000133C3F30B0351E004234FE07B689B6851
:100E3C00002B11D1FB68581E7B6859680B465B0070
:100E4C000B44B0FBF3F30133C3F30B03002B0CBFC8
:100E5C0001230023DBB212E0FB68581E7B68596843
:100E6C000B469B000B4499000B44B0FBF3F301338E
:100E7C00C3F30B03002B0CBF01230023DBB2002BAD
:100E8C0001D0012322E07B689B68002B0ED1FB680C
:100E9C00581E7B6859680B465B000B44B0FBF3F3A0
:100EAC000133C3F30B0343F400430FE0FB68581EFC
:100EBC007B6859680B469B000B4499000B44B0FBB4
:100ECC00F3F30133C3F30B0343F44043796809682C
:100EDC001343CB617B681B681B6823F0C0017B68E4
:100EEC00DA697B681B6A1A437B681B680A431A60C1
:100EFC007B681B689B6823F4034323F0FF037A6829
:100F0C0011697A68D26811437A6812680B4393604E
:100F1C007B681B68DB6823F0FF017B685A697B6880
:100F2C009B691A437B681B680A43DA607B681B6801
:100F3C001A687B681B6842F001021A607B68002209
:100F4C001A647B68202283F83D207B6800221A6398
:100F5C007B68002283F83E20002318461037BD46DC
:100F6C0080BD00BFA08601007F841E00FF083D00ED
:100F7C0083DE1B43D34D621080B588B002AFF8609E
:100F8C007A601A460B467B8113463B81FFF702FCC5
:100F9C007861FB6893F83D30DBB2202B40F0E080A9
:100FAC007B690093192301227049F86800F064F9F9
:100FBC000346002B01D00223D3E0FB6893F83C30AE
:100FCC00012B01D10223CCE0FB68012283F83C20E9
:100FDC00FB681B681B6803F00103012B07D0FB683F
:100FEC001B681A68FB681B6842F001021A60FB68F8
:100FFC001B681A68FB681B6822F400621A60FB68A5
:10100C00212283F83D20FB68102283F83E20FB68E8
:10101C0000221A64FB687A685A62FB683A895A851E
:10102C00FB685B8D9AB2FB681A85FB68504ADA62E2
:10103C0079897B693A6AF86800F09CF80346002BC2
:10104C0001D001238DE000233B61FB681B685B69C9
:10105C003B61FB681B689B693B613B6966E07A6995
:10106C00396AF86800F022FA0346002B0DD0FB68B1
:10107C001B6C042B07D1FB681B681A68FB681B6888
:10108C0042F400721A6001236BE0FB685B6A1A7809
:10109C00FB681B681A61FB685B6A5A1CFB685A6226
:1010AC00FB685B8D9BB2013B9AB2FB685A85FB686F
:1010BC001B8D013B9AB2FB681A85FB681B685B6948
:1010CC0003F00403042B1BD1FB681B8D002B17D0E2
:1010DC00FB685B6A1A78FB681B681A61FB685B6AC1
:1010EC005A1CFB685A62FB685B8D9BB2013B9AB23F
:1010FC00FB685A85FB681B8D013B9AB2FB681A850D
:10110C007A69396AF86800F019FA0346002B0DD099
:10111C00FB681B6C042B07D1FB681B681A68FB6807
:10112C001B6842F400721A6001231AE0FB681B8DE5
:10113C00002B94D1FB681B681A68FB681B6842F48F
:10114C0000721A60FB68202283F83D20FB680022A5
:10115C0083F83E20FB68002283F83C20002300E04B
:10116C00022318461837BD4680BD00BF0200100090
:10117C000000FFFF80B588B002AFF8607A603B607A
:10118C000B467B81FB68DB6A7B617B69082B06D095
:10119C007B69012B03D07B6913F5803F08D1FB6879
:1011AC001B681A68FB681B6842F480721A600BE0BB
:1011BC00FB681B6B122B07D1FB681B681A68FB685A
:1011CC001B6842F480721A603B6800937B680022B3
:1011DC004FF00111F86800F04FF80346002B0DD0CA
:1011EC00FB681B681B6803F48073B3F5807F03D125
:1011FC00FB684FF400721A64032335E0FB681B692B
:10120C00B3F5804F08D17B89DBB21A46FB681B68AB
:10121C0002F0FE021A611BE07B89DB11DBB203F0EA
:10122C000603DBB263F00F03DAB2FB681B681A61CA
:10123C003B687A680E49F86800F098F80346002B72
:10124C0001D0012310E07B89DAB2FB681B681A61BC
:10125C003B687A680749F86800F088F80346002B69
:10126C0001D0012300E0002318461837BD4680BD8D
:10127C00080001000200010080B584B000AFF860E6
:10128C00B9603B601346FB7148E03B68B3F1FF3F2C
:10129C0044D0FFF77FFA0246BB69D31A3A689A42E8
:1012AC0002D33B68002B39D1BB681B0CDBB2012B82
:1012BC000DD1FB681B685B69DA43BB6813409BB2BA
:1012CC00002B0CBF01230023DBB21A460CE0FB6899
:1012DC001B689B69DA43BB6813409BB2002B0CBFA5
:1012EC0001230023DBB21A46FB799A4216D1FB6824
:1012FC0000221A63FB68202283F83D20FB68002241
:10130C0083F83E20FB681B6C43F02002FB681A64D8
:10131C00FB68002283F83C20012323E0BB681B0CF4
:10132C00DBB2012B0DD1FB681B685B69DA43BB6830
:10133C0013409BB2002B0CBF01230023DBB21A46D7
:10134C000CE0FB681B689B69DA43BB6813409BB2DB
:10135C00002B0CBF01230023DBB21A46FB799A4207
:10136C0093D0002318461037BD4680BD80B584B09D
:10137C0000AFF860B9607A603B6071E0FB681B6895
:10138C005B6903F48063B3F5806F23D1FB681B6842
:10139C001A68FB681B6842F400721A60FB681B68D1
:1013AC006FF480625A61FB6800221A63FB6820228A
:1013BC0083F83D20FB68002283F83E20FB681B6C01
:1013CC0043F00402FB681A64FB68002283F83C209B
:1013DC00012367E07B68B3F1FF3F41D0FFF7DAF9F7
:1013EC0002463B68D31A7A689A4202D37B68002B78
:1013FC0036D1BB681B0CDBB2012B0CD1FB681B6814
:10140C005B69DA43BB6813409BB2002B14BF01230A
:10141C000023DBB20BE0FB681B689B69DA43BB68FB
:10142C0013409BB2002B14BF01230023DBB2002B13
:10143C0016D0FB6800221A63FB68202283F83D203B
:10144C00FB68002283F83E20FB681B6C43F02002F3
:10145C00FB681A64FB68002283F83C20012321E01E
:10146C00BB681B0CDBB2012B0CD1FB681B685B69E6
:10147C00DA43BB6813409BB2002B14BF012300233B
:10148C00DBB20BE0FB681B689B69DA43BB6813405B
:10149C009BB2002B14BF01230023DBB2002B7FF483
:1014AC006DAF002318461037BD4680BD80B584B0A3
:1014BC0000AFF860B9607A6034E0F86800F086F844
:1014CC000346002B01D0012334E0BB68B3F1FF3F8E
:1014DC0028D0FFF75FF902467B68D31ABA689A42A4
:1014EC0002D3BB68002B1DD1FB681B685B6903F042
:1014FC008003802B16D0FB6800221A63FB68202225
:10150C0083F83D20FB68002283F83E20FB681B6CAF
:10151C0043F02002FB681A64FB68002283F83C202D
:10152C00012307E0FB681B685B6903F08003802BD9
:10153C00C3D1002318461037BD4680BD80B584B09A
:10154C0000AFF860B9607A6034E0F86800F03EF8FB
:10155C000346002B01D0012334E0BB68B3F1FF3FFD
:10156C0028D0FFF717F902467B68D31ABA689A425B
:10157C0002D3BB68002B1DD1FB681B685B6903F0B1
:10158C000403042B16D0FB6800221A63FB6820228C
:10159C0083F83D20FB68002283F83E20FB681B6C1F
:1015AC0043F02002FB681A64FB68002283F83C209D
:1015BC00012307E0FB681B685B6903F00403042B41
:1015CC00C3D1002318461037BD4680BD80B483B00C
:1015DC0000AF78607B681B685B6903F48063B3F5CC
:1015EC00806F1BD17B681B686FF480625A617B68CB
:1015FC0000221A637B68202283F83D207B6800223E
:10160C0083F83E207B681B6C43F004027B681A64F1
:10161C007B68002283F83C20012300E0002318465D
:10162C000C37BD4680BC704780B586B000AF786083
:10163C007B68002B01D1012372E27B681B6803F0ED
:10164C000103002B00F08780924B5B6803F00C03C6
:10165C00042B0CD08F4B5B6803F00C03082B12D1BE
:10166C008C4B5B6803F48033B3F5803F0BD1894B13
:10167C001B6803F40033002B6CD07B685B68002B79
:10168C0068D101234CE27B685B68B3F5803F06D1DF
:10169C00804B1B687F4A43F4803313602EE07B68D9
:1016AC005B68002B0CD17B4B1B687A4A23F480338C
:1016BC001360784B1B68774A23F4802313601DE07A
:1016CC007B685B68B3F5A02F0CD1724B1B68714A19
:1016DC0043F4802313606F4B1B686E4A43F48033D2
:1016EC0013600BE06B4B1B686A4A23F48033136066
:1016FC00684B1B68674A23F4802313607B685B6824
:10170C00002B13D0FFF746F8386108E0FFF742F8DA
:10171C0002463B69D31A642B01D9032300E25D4BCB
:10172C001B6803F40033002BF0D014E0FFF732F801
:10173C00386108E0FFF72EF802463B69D31A642B98
:10174C0001D90323ECE1534B1B6803F40033002B4A
:10175C00F0D100E000BF7B681B6803F00203002B94
:10176C0063D04C4B5B6803F00C03002B0BD0494B44
:10177C005B6803F00C03082B1CD1464B5B6803F42D
:10178C008033002B16D1434B1B6803F00203002B54
:10179C0005D07B681B69012B01D00123C0E13D4BB7
:1017AC001B6823F0F8027B685B69DB003949134343
:1017BC000B603AE07B681B69002B20D0364B012272
:1017CC001A60FEF7E7FF386108E0FEF7E3FF024618
:1017DC003B69D31A022B01D90323A1E12D4B1B68C2
:1017EC0003F00203002BF0D02A4B1B6823F0F80205
:1017FC007B685B69DB00274913430B6015E0264BC4
:10180C0000221A60FEF7C6FF386108E0FEF7C2FF3F
:10181C0002463B69D31A022B01D9032380E11D4BED
:10182C001B6803F00203002BF0D17B681B6803F0EC
:10183C000803002B3AD07B689B69002B19D0174BFF
:10184C0001221A60FEF7A6FF386108E0FEF7A2FF3E
:10185C0002463B69D31A022B01D9032360E10D4BDD
:10186C005B6A03F00203002BF0D0012000F0BAFAFF
:10187C001CE00A4B00221A60FEF78CFF38610FE067
:10188C00FEF788FF02463B69D31A022B08D90323C3
:10189C0046E100BF00100240000042428004424278
:1018AC00924B5B6A03F00203002BE9D17B681B6847
:1018BC0003F00403002B00F0A6800023FB758B4B78
:1018CC00DB6903F08053002B0DD1884BDB69874A11
:1018DC0043F08053D361854BDB6903F08053BB60CD
:1018EC00BB680123FB75824B1B6803F48073002BD0
:1018FC0018D17F4B1B687E4A43F480731360FEF74C
:10190C0049FF386108E0FEF745FF02463B69D31AF0
:10191C00642B01D9032303E1754B1B6803F480731B
:10192C00002BF0D07B68DB68012B06D16F4B1B6A58
:10193C006E4A43F0010313622DE07B68DB68002BD9
:10194C000CD16A4B1B6A694A23F001031362674B83
:10195C001B6A664A23F0040313621CE07B68DB6895
:10196C00052B0CD1614B1B6A604A43F004031362D4
:10197C005E4B1B6A5D4A43F0010313620BE05B4B49
:10198C001B6A5A4A23F001031362584B1B6A574ACD
:10199C0023F0040313627B68DB68002B15D0FEF781
:1019AC00F9FE38610AE0FEF7F5FE02463B69D31AF0
:1019BC0041F28832934201D90323B1E04B4B1B6AAD
:1019CC0003F00203002BEED014E0FEF7E3FE3861C7
:1019DC000AE0FEF7DFFE02463B69D31A41F2883279
:1019EC00934201D903239BE0404B1B6A03F0020393
:1019FC00002BEED1FB7D012B05D13C4BDB693B4A27
:101A0C0023F08053D3617B68DB69002B00F0878067
:101A1C00364B5B6803F00C03082B61D07B68DB69E9
:101A2C00022B46D1334B00221A60FEF7B3FE38610D
:101A3C0008E0FEF7AFFE02463B69D31A022B01D930
:101A4C0003236DE0294B1B6803F00073002BF0D1CE
:101A5C007B681B6AB3F5803F08D1244B5B6823F489
:101A6C0000327B689B68214913434B601F4B5B68BA
:101A7C0023F474127B68196A7B685B6A0B431B49FD
:101A8C0013434B601B4B01221A60FEF783FE386137
:101A9C0008E0FEF77FFE02463B69D31A022B01D900
:101AAC0003233DE0114B1B6803F00073002BF0D0B7
:101ABC0035E0104B00221A60FEF76CFE386108E02E
:101ACC00FEF768FE02463B69D31A022B01D90323A9
:101ADC0026E0064B1B6803F00073002BF0D11EE0D0
:101AEC007B68DB69012B07D1012319E00010024050
:101AFC0000700040600042420B4B5B68FB60FB686F
:101B0C0003F480327B681B6A9A4206D1FB6803F4AB
:101B1C0070127B685B6A9A4201D0012300E00023BB
:101B2C0018461837BD4680BD0010024080B584B001
:101B3C0000AF786039607B68002B01D10123D0E0C5
:101B4C006A4B1B6803F007033A689A4210D9674B3B
:101B5C001B6823F0070265493B6813430B60634B1A
:101B6C001B6803F007033A689A4201D00123B8E0DE
:101B7C007B681B6803F00203002B20D07B681B687A
:101B8C0003F00403002B05D0594B5B68584A43F40F
:101B9C00E06353607B681B6803F00803002B05D0DF
:101BAC00534B5B68524A43F460535360504B5B6831
:101BBC0023F0F0027B689B684D4913434B607B68B4
:101BCC001B6803F00103002B40D07B685B68012B82
:101BDC0007D1474B1B6803F40033002B15D10123AD
:101BEC007FE07B685B68022B07D1414B1B6803F0DD
:101BFC000073002B09D1012373E03D4B1B6803F0EC
:101C0C000203002B01D101236BE0394B5B6823F0FD
:101C1C0003027B685B68364913434B60FEF7BAFDE1
:101C2C00F8600AE0FEF7B6FD0246FB68D31A41F2F3
:101C3C008832934201D9032353E02D4B5B6803F0A8
:101C4C000C027B685B689B009A42EBD1274B1B68AC
:101C5C0003F007033A689A4210D2244B1B6823F016
:101C6C00070222493B6813430B60204B1B6803F0AF
:101C7C0007033A689A4201D0012332E07B681B6863
:101C8C0003F00403002B08D0194B5B6823F4E062CB
:101C9C007B68DB68164913434B607B681B6803F059
:101CAC000803002B09D0124B5B6823F460527B684D
:101CBC001B69DB000E4913434B6000F021F8024610
:101CCC000B4B5B681B0903F00F030A49CB5C22FA30
:101CDC0003F3094A1360094B1B681846FEF718FDFD
:101CEC00002318461037BD4680BD00BF00200240BF
:101CFC0000100240AC270008000000200400002067
:101D0C0080B487B000AF0023FB600023BB600023CE
:101D1C007B6100237B6000233B611E4B5B68FB6097
:101D2C00FB6803F00C03042B02D0082B03D027E034
:101D3C00194B3B6127E0FB689B0C03F00F03174A20
:101D4C00D35C7B60FB6803F48033002B10D0114B09
:101D5C005B685B0C03F00103114AD35CBB607B68CE
:101D6C000D4A03FB02F2BB68B2FBF3F37B6104E0A8
:101D7C007B680C4A02FB03F37B617B693B6102E0ED
:101D8C00054B3B6100BF3B6918461C37BD4680BC08
:101D9C00704700BF0010024000127A00C4270008F0
:101DAC00D427000800093D0080B400AF024B1B682B
:101DBC001846BD4680BC70470000002080B500AFBF
:101DCC00FFF7F2FF0246054B5B681B0A03F00703A3
:101DDC000349CB5C22FA03F3184680BD0010024085
:101DEC00BC27000880B485B000AF78600A4B1B6834
:101DFC000A4AA2FB03235B0A7A6802FB03F3FB602B
:101E0C0000BFFB685A1EFA60002BF9D100BF00BF5F
:101E1C001437BD4680BC704700000020D34D6210C3
:101E2C000EB46FF0004100B59CB01DAB0290069053
:101E3C00079104910848094953F8042B059100684F
:101E4C0002A9019300F08EF90022029B1A701CB0BB
:101E5C005DF804EB03B07047580000200802FFFF48
:101E6C0003460244934200D1704703F8011BF9E783
:101E7C00014B1868704700BF5800002070B5002651
:101E8C000C4D0D4C641BA410A64209D100F07AFC39
:101E9C0000260A4D0A4C641BA410A64205D170BD45
:101EAC0055F8043B98470136EEE755F8043B984744
:101EBC000136F2E70C2800080C2800080C28000852
:101ECC00102800087047704738B50546002940D0E7
:101EDC0051F8043C0C1F002BB8BFE41800F0DCF8E0
:101EEC001C4A136833B9636014602846BDE8384057
:101EFC0000F0D8B8A34208D9206821188B4201BF42
:101F0C0019685B6809182160EDE71A465B680BB12C
:101F1C00A342FAD911685018A0420BD12068014491
:101F2C00501883421160E0D118685B680844106057
:101F3C005360DAE702D90C232B60D6E7206821180E
:101F4C008B4201BF19685B6809182160636054609B
:101F5C00CBE738BD1402002070B50E4E0C4631682C
:101F6C00054611B900F0AAFB30602146284600F066
:101F7C00A5FB431C0AD0C41C24F00304A04207D0C8
:101F8C00211A284600F09AFB013001D14FF0FF34A2
:101F9C00204670BD180200202DE9F843CD1C25F019
:101FAC00030508350C2D38BF0C25002D074601DB29
:101FBC00A94205D90C2300263B603046BDE8F883C6
:101FCC00DFF8D08000F068F8D8F800301C465CBB15
:101FDC0029463846FFF7C0FF431C044655D1D8F8B4
:101FEC0000402646002E45D1002C48D023683146AF
:101FFC00384604EB030900F061FB81453FD12168B1
:10200C0038466D1A2946FFF7A7FF013037D02368F1
:10201C002B442360D8F80030002B38D05A68A242E9
:10202C002BD100225A600FE02268521B1FD40B2ABE
:10203C0017D96119A342256018BF5960636808BF9E
:10204C00C8F8001062514B60384604F10B0600F0E2
:10205C0029F826F00706231DF21AAED09B1BA350BD
:10206C00ABE7A3426268DDD1C8F80020ECE7234659
:10207C006468ACE734467668B4E71346CCE70C23C7
:10208C0038463B6000F00EF897E72560DCE75B60B4
:10209C00FFDE00BF140200200148FFF713BF00BF92
:1020AC00100200200148FFF70EBF00BF10020020F5
:1020BC002DE9F0471F468E688246BE420C4690467C
:1020CC000B682CD88A8912F4906F26D0656909693F
:1020DC0005EB4505A3EB010905EBD5757B1C4B44C2
:1020EC006D109D4238BF1D46530527D52946FFF775
:1020FC0053FF064660B34A46216900F0FDFAA389F6
:10210C0023F4906343F08003A38126614E44266040
:10211C003E466561A5EB0905A560BE4200D93E4669
:10212C0032464146206800F0AFFA0020A3689B1BA2
:10213C00A360236833442360BDE8F0872A4600F08F
:10214C00E9FA06460028E0D150462169FFF7BCFEAB
:10215C000C23CAF80030A3894FF0FF3043F0400342
:10216C00A381E9E72DE9F04F98468B8907461B06BA
:10217C000D4614469DB00ED50B6963B94021FFF78F
:10218C000BFF2860286120B90C233B604FF0FF3017
:10219C00D0E040236B610023099320238DF8293074
:1021AC0030234FF00109CDF80C80DFF8A0818DF8B9
:1021BC002A3023469A4613F8012B0AB1252AF9D165
:1021CC00BAEB040B0BD05B46224629463846FFF788
:1021DC006FFF013000F0A980099A5A4409929AF8CD
:1021EC000030002B00F0A18000234FF0FF32CDE92E
:1021FC0005230AF1010A049307938DF853301A93BF
:10220C005446052214F8011B504800F067FA049A52
:10221C00D8B9D00644BF20238DF85330110744BFE2
:10222C002B238DF853309AF800302A2B15D05446B6
:10223C0000204FF00A0C079A214611F8013B303B65
:10224C00092B4DD9B0B1079214E0A0EB080309FAA1
:10225C0003F31343A2460493D2E7039B191D1B6897
:10226C000391002BBBBF5B4242F002020793079322
:10227C00B8BF049223782E2B0CD163782A2B34D13F
:10228C00039B02341A1D1B680392002BB8BF4FF03E
:10229C00FF330593DFF8B8A003225046217800F0F5
:1022AC001DFA38B14022049BA0EB0A008240134374
:1022BC000134049314F8011B062226488DF82810CB
:1022CC0000F00CFA002838D0234B1BBB039B0733C0
:1022DC0023F0070308330393099B3344099368E7FE
:1022EC000C4601200CFB0232A6E700234FF00A0C2F
:1022FC00194601340593204610F8012B303A092A6F
:10230C0003D9002BC6D00591C4E7044601230CFB6E
:10231C000121F0E703AB00932A4638460F4B04A982
:10232C00AFF30080421C0646D6D1AB895B063FF565
:10233C002DAF09981DB0BDE8F08F03AB00932A4672
:10234C003846064B04A900F07DF8EBE7D6270008C9
:10235C00DC270008E027000800000000BD20000872
:10236C002DE9F047164699468A680B690746934251
:10237C00B8BF1346336091F843200C46DDF820803B
:10238C000AB1013333602368990642BF33680233C4
:10239C003360256815F0060506D104F1190AE368C7
:1023AC0032689B1AAB422BDC94F84320131E226834
:1023BC0018BF0123920630D44946384604F1430233
:1023CC00C047013023D02368226903F00603042B95
:1023DC0014BF002533684FF0000608BFE56804F110
:1023EC001A0408BFED1A54F8123C08BF25EAE5752B
:1023FC009342C4BF9B1AED18B5421AD1002008E0D5
:10240C000123524649463846C047013003D14FF0AC
:10241C00FF30BDE8F0870135C1E73020E11881F8C5
:10242C0043005A1C94F845102244023382F843109E
:10243C00C2E70123224649463846C0470130E6D060
:10244C000136D9E72DE9FF470F7E9146782F80465C
:10245C000C469A460C9D01F1430207D8622F0AD80C
:10246C00002F00F0D580582F00F0C18004F14205F8
:10247C0084F842703AE0A7F16303152BF6D801A15A
:10248C0051F823F0E9240008FD2400087924000801
:10249C00792400087924000879240008FD24000818
:1024AC00792400087924000879240008792400088C
:1024BC000326000829250008BD25000879240008FA
:1024CC00792400082526000879240008292500080D
:1024DC007924000879240008C52500082B681A1DEA
:1024EC001B682A6004F1420584F842300123A0E005
:1024FC0020682B68070603F10401296001D51E68CA
:10250C0003E04606FBD5B3F90060002E03DA2D2359
:10251C00764284F843300A23594812E02B6820682D
:10252C00191D2960050601D51E6802E04106FBD580
:10253C001E886F2F0CBF08230A235148002184F8F2
:10254C0043106568002DA8BF2168A560A4BF21F0C9
:10255C00040121600EB9002D4BD01546B6FBF3F1EA
:10256C0003FB1167C75D05F8017D3746BB420E467C
:10257C00F4D9082B0BD12368DE0708D523696168D1
:10258C009942DEBF302305F8013C05F1FF35521BA3
:10259C0022614B4621464046CDF800A003AAFFF726
:1025AC00DFFE01304AD14FF0FF3004B0BDE8F087B8
:1025BC00236843F0200323607827324884F8457061
:1025CC00236829681F0651F8046B02D45F0648BFC4
:1025DC00B6B2DF0748BF43F02003296048BF236031
:1025EC001EB9236823F0200323601023A6E7244898
:1025FC00E4E71546BDE72B682668181D616928605D
:10260C0035061B6801D5196002E07006FBD51980F0
:10261C00002315462361BCE72B6800211A1D2A6094
:10262C001D686268284600F059F808B1401B6060CC
:10263C0063682361002384F84330AAE72A4649469D
:10264C0040462369D0470130ADD023689B0713D493
:10265C00E068039B9842B8BF1846A6E701233246B0
:10266C0049464046D04701309DD00135E368039977
:10267C005B1AAB42F2DCEBE7002504F11906F5E737
:10268C00E7270008F8270008884210B501EB020480
:10269C0002D98442234607D8431EA14208D011F820
:1026AC00012B03F8012FF8E7014602448A4200D1BE
:1026BC0010BD13F8014D02F8014DF7E738B50023B2
:1026CC00054D044608462B60FDF7AAFF431C02D1BA
:1026DC002B6803B1236038BD0C020020034610B5F3
:1026EC00C9B202449342184601D1002003E0047899
:1026FC0001338C42F6D110BD0A44914200F1FF33F4
:10270C0000D1704710B511F8014B914203F8014FFD
:10271C00F9D110BD2DE9F041804614460E4621B981
:10272C001146BDE8F041FFF737BC2AB9FFF7CCFBE7
:10273C0025462846BDE8F08100F01BF88442074688
:10274C0002D8B4EB500F12D821464046FFF724FCB8
:10275C0005460028EDD0BC422246314628BF3A46F9
:10276C00FFF7CAFF31464046FFF7AEFBE1E73546BF
:10277C00DFE751F8043C181F002BBCBF0B58C018E6
:10278C0070470000F8B500BFF8BC08BC9E46704707
:0C279C00F8B500BFF8BC08BC9E467047B2
:1027A800256400000000000000000000010203048E
:1027B80006070809000000000102030402030405DB
:1027C800060708090A0B0C0D0E0F10100102232D25
:1027D800302B2000686C4C00656667454647003022
:1027E800313233343536373839414243444546006F
:1027F800303132333435363738396162636465666F
:0428080000000000CC
:04280C00310100088E
:042810000D010008AE
:1028140000127A0010000000010000000000000017
:10282400D40000203C010020A4010020000000008E
:102834000000000000000000000000000000000094
:102844000000000000000000000000000000000084
:102854000000000000000000000000000000000074
:0C28640000000000000000000C0000203C
:04000005080006A544
:00000001FF
